{
  "_format": "hh-sol-artifact-1",
  "contractName": "WavePortal",
  "sourceName": "contracts/WavePortal.sol",
  "abi": [
    {
      "inputs": [],
      "stateMutability": "nonpayable",
      "type": "constructor"
    },
    {
      "inputs": [],
      "name": "getTotalWaves",
      "outputs": [
        {
          "internalType": "uint256",
          "name": "",
          "type": "uint256"
        }
      ],
      "stateMutability": "view",
      "type": "function"
    },
    {
      "inputs": [
        {
          "internalType": "address",
          "name": "addr",
          "type": "address"
        }
      ],
      "name": "getUsername",
      "outputs": [
        {
          "internalType": "string",
          "name": "",
          "type": "string"
        }
      ],
      "stateMutability": "view",
      "type": "function"
    },
    {
      "inputs": [
        {
          "internalType": "address",
          "name": "user",
          "type": "address"
        }
      ],
      "name": "getWaveCount",
      "outputs": [
        {
          "internalType": "uint256",
          "name": "",
          "type": "uint256"
        }
      ],
      "stateMutability": "view",
      "type": "function"
    },
    {
      "inputs": [
        {
          "internalType": "uint256",
          "name": "index",
          "type": "uint256"
        }
      ],
      "name": "getWaveInfo",
      "outputs": [
        {
          "components": [
            {
              "internalType": "address",
              "name": "account",
              "type": "address"
            },
            {
              "internalType": "uint256",
              "name": "timestamp",
              "type": "uint256"
            },
            {
              "internalType": "string",
              "name": "tweet",
              "type": "string"
            }
          ],
          "internalType": "struct WavePortal.WaveInfo",
          "name": "",
          "type": "tuple"
        }
      ],
      "stateMutability": "view",
      "type": "function"
    },
    {
      "inputs": [
        {
          "internalType": "string",
          "name": "name",
          "type": "string"
        }
      ],
      "name": "setUsername",
      "outputs": [],
      "stateMutability": "nonpayable",
      "type": "function"
    },
    {
      "inputs": [],
      "name": "totalWaves",
      "outputs": [
        {
          "internalType": "uint256",
          "name": "",
          "type": "uint256"
        }
      ],
      "stateMutability": "view",
      "type": "function"
    },
    {
      "inputs": [
        {
          "internalType": "address",
          "name": "",
          "type": "address"
        }
      ],
      "name": "username",
      "outputs": [
        {
          "internalType": "string",
          "name": "",
          "type": "string"
        }
      ],
      "stateMutability": "view",
      "type": "function"
    },
    {
      "inputs": [
        {
          "internalType": "string",
          "name": "message",
          "type": "string"
        }
      ],
      "name": "wave",
      "outputs": [],
      "stateMutability": "nonpayable",
      "type": "function"
    },
    {
      "inputs": [
        {
          "internalType": "address",
          "name": "",
          "type": "address"
        }
      ],
      "name": "waveCount",
      "outputs": [
        {
          "internalType": "uint256",
          "name": "",
          "type": "uint256"
        }
      ],
      "stateMutability": "view",
      "type": "function"
    },
    {
      "inputs": [
        {
          "internalType": "uint256",
          "name": "",
          "type": "uint256"
        }
      ],
      "name": "waveStore",
      "outputs": [
        {
          "internalType": "address",
          "name": "account",
          "type": "address"
        },
        {
          "internalType": "uint256",
          "name": "timestamp",
          "type": "uint256"
        },
        {
          "internalType": "string",
          "name": "tweet",
          "type": "string"
        }
      ],
      "stateMutability": "view",
      "type": "function"
    }
  ],
  "bytecode": "0x60806040523480156200001157600080fd5b50620000416040518060600160405280602481526020016200144d602491396200004760201b620008e21760201c565b620001db565b620000e7816040516024016200005e919062000154565b6040516020818303038152906040527f41304fac000000000000000000000000000000000000000000000000000000007bffffffffffffffffffffffffffffffffffffffffffffffffffffffff19166020820180517bffffffffffffffffffffffffffffffffffffffffffffffffffffffff8381831617835250505050620000ea60201b60201c565b50565b60008151905060006a636f6e736f6c652e6c6f679050602083016000808483855afa5050505050565b6000620001208262000178565b6200012c818562000183565b93506200013e81856020860162000194565b6200014981620001ca565b840191505092915050565b6000602082019050818103600083015262000170818462000113565b905092915050565b600081519050919050565b600082825260208201905092915050565b60005b83811015620001b457808201518184015260208101905062000197565b83811115620001c4576000848401525b50505050565b6000601f19601f8301169050919050565b61126280620001eb6000396000f3fe608060405234801561001057600080fd5b506004361061009e5760003560e01c8063831918ce11610066578063831918ce1461016d5780639a2cdc081461019f578063ae020f4f146101bd578063ce43c032146101ed578063ed59313a1461021d5761009e565b80630610a7a2146100a3578063291bcab3146100d3578063449d46c0146100f15780635b2ae0871461010d5780637dd0849e1461013d575b600080fd5b6100bd60048036038101906100b89190610ce7565b610239565b6040516100ca9190610eb6565b60405180910390f35b6100db6102d9565b6040516100e89190610f98565b60405180910390f35b61010b60048036038101906101069190610d10565b6102df565b005b61012760048036038101906101229190610ce7565b610459565b6040516101349190610f98565b60405180910390f35b61015760048036038101906101529190610d51565b610521565b6040516101649190610f76565b60405180910390f35b61018760048036038101906101829190610d51565b610675565b60405161019693929190610e78565b60405180910390f35b6101a7610757565b6040516101b49190610f98565b60405180910390f35b6101d760048036038101906101d29190610ce7565b6107a2565b6040516101e49190610f98565b60405180910390f35b61020760048036038101906102029190610ce7565b6107ba565b6040516102149190610eb6565b60405180910390f35b61023760048036038101906102329190610d10565b61088b565b005b60036020528060005260406000206000915090508054610258906110b4565b80601f0160208091040260200160405190810160405280929190818152602001828054610284906110b4565b80156102d15780601f106102a6576101008083540402835291602001916102d1565b820191906000526020600020905b8154815290600101906020018083116102b457829003601f168201915b505050505081565b60005481565b6000808154809291906102f190611117565b9190505550600160003373ffffffffffffffffffffffffffffffffffffffff1673ffffffffffffffffffffffffffffffffffffffff168152602001908152602001600020600081548092919061034690611117565b9190505550600260405180606001604052803373ffffffffffffffffffffffffffffffffffffffff16815260200142815260200183815250908060018154018082558091505060019003906000526020600020906003020160009091909190915060008201518160000160006101000a81548173ffffffffffffffffffffffffffffffffffffffff021916908373ffffffffffffffffffffffffffffffffffffffff160217905550602082015181600101556040820151816002019080519060200190610414929190610b7b565b5050506104566040518060400160405280600c81526020017f25732068617320776176656400000000000000000000000000000000000000008152503361097b565b50565b60006104da6040518060400160405280601181526020017f25732077617665642025642074696d657300000000000000000000000000000081525083600160008673ffffffffffffffffffffffffffffffffffffffff1673ffffffffffffffffffffffffffffffffffffffff16815260200190815260200160002054610a17565b600160008373ffffffffffffffffffffffffffffffffffffffff1673ffffffffffffffffffffffffffffffffffffffff168152602001908152602001600020549050919050565b610529610c01565b60028281548110610563577f4e487b7100000000000000000000000000000000000000000000000000000000600052603260045260246000fd5b90600052602060002090600302016040518060600160405290816000820160009054906101000a900473ffffffffffffffffffffffffffffffffffffffff1673ffffffffffffffffffffffffffffffffffffffff1673ffffffffffffffffffffffffffffffffffffffff168152602001600182015481526020016002820180546105ec906110b4565b80601f0160208091040260200160405190810160405280929190818152602001828054610618906110b4565b80156106655780601f1061063a57610100808354040283529160200191610665565b820191906000526020600020905b81548152906001019060200180831161064857829003601f168201915b5050505050815250509050919050565b6002818154811061068557600080fd5b90600052602060002090600302016000915090508060000160009054906101000a900473ffffffffffffffffffffffffffffffffffffffff16908060010154908060020180546106d4906110b4565b80601f0160208091040260200160405190810160405280929190818152602001828054610700906110b4565b801561074d5780601f106107225761010080835404028352916020019161074d565b820191906000526020600020905b81548152906001019060200180831161073057829003601f168201915b5050505050905083565b600061079a6040518060400160405280600f81526020017f746f74616c2077617665733a2025640000000000000000000000000000000000815250600054610ab6565b600054905090565b60016020528060005260406000206000915090505481565b6060600360008373ffffffffffffffffffffffffffffffffffffffff1673ffffffffffffffffffffffffffffffffffffffff1681526020019081526020016000208054610806906110b4565b80601f0160208091040260200160405190810160405280929190818152602001828054610832906110b4565b801561087f5780601f106108545761010080835404028352916020019161087f565b820191906000526020600020905b81548152906001019060200180831161086257829003601f168201915b50505050509050919050565b80600360003373ffffffffffffffffffffffffffffffffffffffff1673ffffffffffffffffffffffffffffffffffffffff16815260200190815260200160002090805190602001906108de929190610b7b565b5050565b610978816040516024016108f69190610eb6565b6040516020818303038152906040527f41304fac000000000000000000000000000000000000000000000000000000007bffffffffffffffffffffffffffffffffffffffffffffffffffffffff19166020820180517bffffffffffffffffffffffffffffffffffffffffffffffffffffffff8381831617835250505050610b52565b50565b610a138282604051602401610991929190610ed8565b6040516020818303038152906040527f319af333000000000000000000000000000000000000000000000000000000007bffffffffffffffffffffffffffffffffffffffffffffffffffffffff19166020820180517bffffffffffffffffffffffffffffffffffffffffffffffffffffffff8381831617835250505050610b52565b5050565b610ab1838383604051602401610a2f93929190610f08565b6040516020818303038152906040527f0d26b925000000000000000000000000000000000000000000000000000000007bffffffffffffffffffffffffffffffffffffffffffffffffffffffff19166020820180517bffffffffffffffffffffffffffffffffffffffffffffffffffffffff8381831617835250505050610b52565b505050565b610b4e8282604051602401610acc929190610f46565b6040516020818303038152906040527fb60e72cc000000000000000000000000000000000000000000000000000000007bffffffffffffffffffffffffffffffffffffffffffffffffffffffff19166020820180517bffffffffffffffffffffffffffffffffffffffffffffffffffffffff8381831617835250505050610b52565b5050565b60008151905060006a636f6e736f6c652e6c6f679050602083016000808483855afa5050505050565b828054610b87906110b4565b90600052602060002090601f016020900481019282610ba95760008555610bf0565b82601f10610bc257805160ff1916838001178555610bf0565b82800160010185558215610bf0579182015b82811115610bef578251825591602001919060010190610bd4565b5b509050610bfd9190610c38565b5090565b6040518060600160405280600073ffffffffffffffffffffffffffffffffffffffff16815260200160008152602001606081525090565b5b80821115610c51576000816000905550600101610c39565b5090565b6000610c68610c6384610fd8565b610fb3565b905082815260208101848484011115610c8057600080fd5b610c8b848285611072565b509392505050565b600081359050610ca2816111fe565b92915050565b600082601f830112610cb957600080fd5b8135610cc9848260208601610c55565b91505092915050565b600081359050610ce181611215565b92915050565b600060208284031215610cf957600080fd5b6000610d0784828501610c93565b91505092915050565b600060208284031215610d2257600080fd5b600082013567ffffffffffffffff811115610d3c57600080fd5b610d4884828501610ca8565b91505092915050565b600060208284031215610d6357600080fd5b6000610d7184828501610cd2565b91505092915050565b610d8381611036565b82525050565b610d9281611036565b82525050565b6000610da382611009565b610dad8185611014565b9350610dbd818560208601611081565b610dc6816111ed565b840191505092915050565b6000610ddc82611009565b610de68185611025565b9350610df6818560208601611081565b610dff816111ed565b840191505092915050565b6000606083016000830151610e226000860182610d7a565b506020830151610e356020860182610e5a565b5060408301518482036040860152610e4d8282610d98565b9150508091505092915050565b610e6381611068565b82525050565b610e7281611068565b82525050565b6000606082019050610e8d6000830186610d89565b610e9a6020830185610e69565b8181036040830152610eac8184610dd1565b9050949350505050565b60006020820190508181036000830152610ed08184610dd1565b905092915050565b60006040820190508181036000830152610ef28185610dd1565b9050610f016020830184610d89565b9392505050565b60006060820190508181036000830152610f228186610dd1565b9050610f316020830185610d89565b610f3e6040830184610e69565b949350505050565b60006040820190508181036000830152610f608185610dd1565b9050610f6f6020830184610e69565b9392505050565b60006020820190508181036000830152610f908184610e0a565b905092915050565b6000602082019050610fad6000830184610e69565b92915050565b6000610fbd610fce565b9050610fc982826110e6565b919050565b6000604051905090565b600067ffffffffffffffff821115610ff357610ff26111be565b5b610ffc826111ed565b9050602081019050919050565b600081519050919050565b600082825260208201905092915050565b600082825260208201905092915050565b600061104182611048565b9050919050565b600073ffffffffffffffffffffffffffffffffffffffff82169050919050565b6000819050919050565b82818337600083830152505050565b60005b8381101561109f578082015181840152602081019050611084565b838111156110ae576000848401525b50505050565b600060028204905060018216806110cc57607f821691505b602082108114156110e0576110df61118f565b5b50919050565b6110ef826111ed565b810181811067ffffffffffffffff8211171561110e5761110d6111be565b5b80604052505050565b600061112282611068565b91507fffffffffffffffffffffffffffffffffffffffffffffffffffffffffffffffff82141561115557611154611160565b5b600182019050919050565b7f4e487b7100000000000000000000000000000000000000000000000000000000600052601160045260246000fd5b7f4e487b7100000000000000000000000000000000000000000000000000000000600052602260045260246000fd5b7f4e487b7100000000000000000000000000000000000000000000000000000000600052604160045260246000fd5b6000601f19601f8301169050919050565b61120781611036565b811461121257600080fd5b50565b61121e81611068565b811461122957600080fd5b5056fea2646970667358221220164ef5a209f6a93f4befd16be015463e22fa33aeb64480547d5121d6086d22fe64736f6c6343000804003348656c6c6f2c2049276d2057617665506f7274616c20736d61727420636f6e7472616374",
  "linkReferences": {},
  "deployedLinkReferences": {}
}