{
  "_format": "hh-sol-artifact-1",
  "contractName": "WavePortal",
  "sourceName": "contracts/WavePortal.sol",
  "abi": [
    {
      "inputs": [],
      "stateMutability": "nonpayable",
      "type": "constructor"
    },
    {
      "inputs": [
        {
          "internalType": "address payable",
          "name": "_receiver",
          "type": "address"
        }
      ],
      "name": "award",
      "outputs": [],
      "stateMutability": "payable",
      "type": "function"
    },
    {
      "inputs": [],
      "name": "getTotalWaves",
      "outputs": [
        {
          "internalType": "uint256",
          "name": "",
          "type": "uint256"
        }
      ],
      "stateMutability": "view",
      "type": "function"
    },
    {
      "inputs": [
        {
          "internalType": "address",
          "name": "addr",
          "type": "address"
        }
      ],
      "name": "getUsername",
      "outputs": [
        {
          "internalType": "string",
          "name": "",
          "type": "string"
        }
      ],
      "stateMutability": "view",
      "type": "function"
    },
    {
      "inputs": [
        {
          "internalType": "address",
          "name": "user",
          "type": "address"
        }
      ],
      "name": "getWaveCount",
      "outputs": [
        {
          "internalType": "uint256",
          "name": "",
          "type": "uint256"
        }
      ],
      "stateMutability": "view",
      "type": "function"
    },
    {
      "inputs": [
        {
          "internalType": "uint256",
          "name": "index",
          "type": "uint256"
        }
      ],
      "name": "getWaveInfo",
      "outputs": [
        {
          "components": [
            {
              "internalType": "address",
              "name": "account",
              "type": "address"
            },
            {
              "internalType": "uint256",
              "name": "timestamp",
              "type": "uint256"
            },
            {
              "internalType": "string",
              "name": "tweet",
              "type": "string"
            }
          ],
          "internalType": "struct WavePortal.WaveInfo",
          "name": "",
          "type": "tuple"
        }
      ],
      "stateMutability": "view",
      "type": "function"
    },
    {
      "inputs": [
        {
          "internalType": "string",
          "name": "name",
          "type": "string"
        }
      ],
      "name": "setUsername",
      "outputs": [],
      "stateMutability": "nonpayable",
      "type": "function"
    },
    {
      "inputs": [],
      "name": "totalWaves",
      "outputs": [
        {
          "internalType": "uint256",
          "name": "",
          "type": "uint256"
        }
      ],
      "stateMutability": "view",
      "type": "function"
    },
    {
      "inputs": [
        {
          "internalType": "address",
          "name": "",
          "type": "address"
        }
      ],
      "name": "username",
      "outputs": [
        {
          "internalType": "string",
          "name": "",
          "type": "string"
        }
      ],
      "stateMutability": "view",
      "type": "function"
    },
    {
      "inputs": [
        {
          "internalType": "string",
          "name": "",
          "type": "string"
        }
      ],
      "name": "usernameIsPresent",
      "outputs": [
        {
          "internalType": "bool",
          "name": "",
          "type": "bool"
        }
      ],
      "stateMutability": "view",
      "type": "function"
    },
    {
      "inputs": [
        {
          "internalType": "string",
          "name": "message",
          "type": "string"
        }
      ],
      "name": "wave",
      "outputs": [],
      "stateMutability": "nonpayable",
      "type": "function"
    },
    {
      "inputs": [
        {
          "internalType": "address",
          "name": "",
          "type": "address"
        }
      ],
      "name": "waveCount",
      "outputs": [
        {
          "internalType": "uint256",
          "name": "",
          "type": "uint256"
        }
      ],
      "stateMutability": "view",
      "type": "function"
    },
    {
      "inputs": [
        {
          "internalType": "uint256",
          "name": "",
          "type": "uint256"
        }
      ],
      "name": "waveStore",
      "outputs": [
        {
          "internalType": "address",
          "name": "account",
          "type": "address"
        },
        {
          "internalType": "uint256",
          "name": "timestamp",
          "type": "uint256"
        },
        {
          "internalType": "string",
          "name": "tweet",
          "type": "string"
        }
      ],
      "stateMutability": "view",
      "type": "function"
    }
  ],
  "bytecode": "0x60806040523480156200001157600080fd5b5062000041604051806060016040528060248152602001620017b2602491396200004760201b62000aeb1760201c565b620001db565b620000e7816040516024016200005e919062000154565b6040516020818303038152906040527f41304fac000000000000000000000000000000000000000000000000000000007bffffffffffffffffffffffffffffffffffffffffffffffffffffffff19166020820180517bffffffffffffffffffffffffffffffffffffffffffffffffffffffff8381831617835250505050620000ea60201b60201c565b50565b60008151905060006a636f6e736f6c652e6c6f679050602083016000808483855afa5050505050565b6000620001208262000178565b6200012c818562000183565b93506200013e81856020860162000194565b6200014981620001ca565b840191505092915050565b6000602082019050818103600083015262000170818462000113565b905092915050565b600081519050919050565b600082825260208201905092915050565b60005b83811015620001b457808201518184015260208101905062000197565b83811115620001c4576000848401525b50505050565b6000601f19601f8301169050919050565b6115c780620001eb6000396000f3fe6080604052600436106100a75760003560e01c80639a2cdc08116100645780639a2cdc08146101f6578063ae020f4f14610221578063c2914d841461025e578063ce43c0321461029b578063ed59313a146102d8578063fbdd25e414610301576100a7565b80630610a7a2146100ac578063291bcab3146100e9578063449d46c0146101145780635b2ae0871461013d5780637dd0849e1461017a578063831918ce146101b7575b600080fd5b3480156100b857600080fd5b506100d360048036038101906100ce9190610f05565b61031d565b6040516100e09190611192565b60405180910390f35b3480156100f557600080fd5b506100fe6103bd565b60405161010b9190611294565b60405180910390f35b34801561012057600080fd5b5061013b60048036038101906101369190610f57565b6103c3565b005b34801561014957600080fd5b50610164600480360381019061015f9190610f05565b61053d565b6040516101719190611294565b60405180910390f35b34801561018657600080fd5b506101a1600480360381019061019c9190610f98565b610605565b6040516101ae9190611272565b60405180910390f35b3480156101c357600080fd5b506101de60048036038101906101d99190610f98565b610759565b6040516101ed93929190611139565b60405180910390f35b34801561020257600080fd5b5061020b61083b565b6040516102189190611294565b60405180910390f35b34801561022d57600080fd5b5061024860048036038101906102439190610f05565b610886565b6040516102559190611294565b60405180910390f35b34801561026a57600080fd5b5061028560048036038101906102809190610f57565b61089e565b6040516102929190611177565b60405180910390f35b3480156102a757600080fd5b506102c260048036038101906102bd9190610f05565b6108d4565b6040516102cf9190611192565b60405180910390f35b3480156102e457600080fd5b506102ff60048036038101906102fa9190610f57565b6109a5565b005b61031b60048036038101906103169190610f2e565b610aa1565b005b6003602052806000526040600020600091509050805461033c906113d9565b80601f0160208091040260200160405190810160405280929190818152602001828054610368906113d9565b80156103b55780601f1061038a576101008083540402835291602001916103b5565b820191906000526020600020905b81548152906001019060200180831161039857829003601f168201915b505050505081565b60005481565b6000808154809291906103d59061143c565b9190505550600160003373ffffffffffffffffffffffffffffffffffffffff1673ffffffffffffffffffffffffffffffffffffffff168152602001908152602001600020600081548092919061042a9061143c565b9190505550600260405180606001604052803373ffffffffffffffffffffffffffffffffffffffff16815260200142815260200183815250908060018154018082558091505060019003906000526020600020906003020160009091909190915060008201518160000160006101000a81548173ffffffffffffffffffffffffffffffffffffffff021916908373ffffffffffffffffffffffffffffffffffffffff1602179055506020820151816001015560408201518160020190805190602001906104f8929190610d84565b50505061053a6040518060400160405280600c81526020017f257320686173207761766564000000000000000000000000000000000000000081525033610b84565b50565b60006105be6040518060400160405280601181526020017f25732077617665642025642074696d657300000000000000000000000000000081525083600160008673ffffffffffffffffffffffffffffffffffffffff1673ffffffffffffffffffffffffffffffffffffffff16815260200190815260200160002054610c20565b600160008373ffffffffffffffffffffffffffffffffffffffff1673ffffffffffffffffffffffffffffffffffffffff168152602001908152602001600020549050919050565b61060d610e0a565b60028281548110610647577f4e487b7100000000000000000000000000000000000000000000000000000000600052603260045260246000fd5b90600052602060002090600302016040518060600160405290816000820160009054906101000a900473ffffffffffffffffffffffffffffffffffffffff1673ffffffffffffffffffffffffffffffffffffffff1673ffffffffffffffffffffffffffffffffffffffff168152602001600182015481526020016002820180546106d0906113d9565b80601f01602080910402602001604051908101604052809291908181526020018280546106fc906113d9565b80156107495780601f1061071e57610100808354040283529160200191610749565b820191906000526020600020905b81548152906001019060200180831161072c57829003601f168201915b5050505050815250509050919050565b6002818154811061076957600080fd5b90600052602060002090600302016000915090508060000160009054906101000a900473ffffffffffffffffffffffffffffffffffffffff16908060010154908060020180546107b8906113d9565b80601f01602080910402602001604051908101604052809291908181526020018280546107e4906113d9565b80156108315780601f1061080657610100808354040283529160200191610831565b820191906000526020600020905b81548152906001019060200180831161081457829003601f168201915b5050505050905083565b600061087e6040518060400160405280600f81526020017f746f74616c2077617665733a2025640000000000000000000000000000000000815250600054610cbf565b600054905090565b60016020528060005260406000206000915090505481565b6004818051602081018201805184825260208301602085012081835280955050505050506000915054906101000a900460ff1681565b6060600360008373ffffffffffffffffffffffffffffffffffffffff1673ffffffffffffffffffffffffffffffffffffffff1681526020019081526020016000208054610920906113d9565b80601f016020809104026020016040519081016040528092919081815260200182805461094c906113d9565b80156109995780601f1061096e57610100808354040283529160200191610999565b820191906000526020600020905b81548152906001019060200180831161097c57829003601f168201915b50505050509050919050565b806004816040516109b69190611122565b908152602001604051809103902060009054906101000a900460ff1615610a12576040517f08c379a0000000000000000000000000000000000000000000000000000000008152600401610a0990611252565b60405180910390fd5b81600360003373ffffffffffffffffffffffffffffffffffffffff1673ffffffffffffffffffffffffffffffffffffffff1681526020019081526020016000209080519060200190610a65929190610d84565b506001600483604051610a789190611122565b908152602001604051809103902060006101000a81548160ff0219169083151502179055505050565b8073ffffffffffffffffffffffffffffffffffffffff166108fc349081150290604051600060405180830381858888f19350505050158015610ae7573d6000803e3d6000fd5b5050565b610b8181604051602401610aff9190611192565b6040516020818303038152906040527f41304fac000000000000000000000000000000000000000000000000000000007bffffffffffffffffffffffffffffffffffffffffffffffffffffffff19166020820180517bffffffffffffffffffffffffffffffffffffffffffffffffffffffff8381831617835250505050610d5b565b50565b610c1c8282604051602401610b9a9291906111b4565b6040516020818303038152906040527f319af333000000000000000000000000000000000000000000000000000000007bffffffffffffffffffffffffffffffffffffffffffffffffffffffff19166020820180517bffffffffffffffffffffffffffffffffffffffffffffffffffffffff8381831617835250505050610d5b565b5050565b610cba838383604051602401610c38939291906111e4565b6040516020818303038152906040527f0d26b925000000000000000000000000000000000000000000000000000000007bffffffffffffffffffffffffffffffffffffffffffffffffffffffff19166020820180517bffffffffffffffffffffffffffffffffffffffffffffffffffffffff8381831617835250505050610d5b565b505050565b610d578282604051602401610cd5929190611222565b6040516020818303038152906040527fb60e72cc000000000000000000000000000000000000000000000000000000007bffffffffffffffffffffffffffffffffffffffffffffffffffffffff19166020820180517bffffffffffffffffffffffffffffffffffffffffffffffffffffffff8381831617835250505050610d5b565b5050565b60008151905060006a636f6e736f6c652e6c6f679050602083016000808483855afa5050505050565b828054610d90906113d9565b90600052602060002090601f016020900481019282610db25760008555610df9565b82601f10610dcb57805160ff1916838001178555610df9565b82800160010185558215610df9579182015b82811115610df8578251825591602001919060010190610ddd565b5b509050610e069190610e41565b5090565b6040518060600160405280600073ffffffffffffffffffffffffffffffffffffffff16815260200160008152602001606081525090565b5b80821115610e5a576000816000905550600101610e42565b5090565b6000610e71610e6c846112d4565b6112af565b905082815260208101848484011115610e8957600080fd5b610e94848285611397565b509392505050565b600081359050610eab8161154c565b92915050565b600081359050610ec081611563565b92915050565b600082601f830112610ed757600080fd5b8135610ee7848260208601610e5e565b91505092915050565b600081359050610eff8161157a565b92915050565b600060208284031215610f1757600080fd5b6000610f2584828501610e9c565b91505092915050565b600060208284031215610f4057600080fd5b6000610f4e84828501610eb1565b91505092915050565b600060208284031215610f6957600080fd5b600082013567ffffffffffffffff811115610f8357600080fd5b610f8f84828501610ec6565b91505092915050565b600060208284031215610faa57600080fd5b6000610fb884828501610ef0565b91505092915050565b610fca8161133d565b82525050565b610fd98161133d565b82525050565b610fe881611361565b82525050565b6000610ff982611305565b6110038185611310565b93506110138185602086016113a6565b61101c81611512565b840191505092915050565b600061103282611305565b61103c8185611321565b935061104c8185602086016113a6565b61105581611512565b840191505092915050565b600061106b82611305565b6110758185611332565b93506110858185602086016113a6565b80840191505092915050565b600061109e601883611321565b91506110a982611523565b602082019050919050565b60006060830160008301516110cc6000860182610fc1565b5060208301516110df6020860182611104565b50604083015184820360408601526110f78282610fee565b9150508091505092915050565b61110d8161138d565b82525050565b61111c8161138d565b82525050565b600061112e8284611060565b915081905092915050565b600060608201905061114e6000830186610fd0565b61115b6020830185611113565b818103604083015261116d8184611027565b9050949350505050565b600060208201905061118c6000830184610fdf565b92915050565b600060208201905081810360008301526111ac8184611027565b905092915050565b600060408201905081810360008301526111ce8185611027565b90506111dd6020830184610fd0565b9392505050565b600060608201905081810360008301526111fe8186611027565b905061120d6020830185610fd0565b61121a6040830184611113565b949350505050565b6000604082019050818103600083015261123c8185611027565b905061124b6020830184611113565b9392505050565b6000602082019050818103600083015261126b81611091565b9050919050565b6000602082019050818103600083015261128c81846110b4565b905092915050565b60006020820190506112a96000830184611113565b92915050565b60006112b96112ca565b90506112c5828261140b565b919050565b6000604051905090565b600067ffffffffffffffff8211156112ef576112ee6114e3565b5b6112f882611512565b9050602081019050919050565b600081519050919050565b600082825260208201905092915050565b600082825260208201905092915050565b600081905092915050565b60006113488261136d565b9050919050565b600061135a8261136d565b9050919050565b60008115159050919050565b600073ffffffffffffffffffffffffffffffffffffffff82169050919050565b6000819050919050565b82818337600083830152505050565b60005b838110156113c45780820151818401526020810190506113a9565b838111156113d3576000848401525b50505050565b600060028204905060018216806113f157607f821691505b60208210811415611405576114046114b4565b5b50919050565b61141482611512565b810181811067ffffffffffffffff82111715611433576114326114e3565b5b80604052505050565b60006114478261138d565b91507fffffffffffffffffffffffffffffffffffffffffffffffffffffffffffffffff82141561147a57611479611485565b5b600182019050919050565b7f4e487b7100000000000000000000000000000000000000000000000000000000600052601160045260246000fd5b7f4e487b7100000000000000000000000000000000000000000000000000000000600052602260045260246000fd5b7f4e487b7100000000000000000000000000000000000000000000000000000000600052604160045260246000fd5b6000601f19601f8301169050919050565b7f557365726e616d6520616c726561647920657869737473210000000000000000600082015250565b6115558161133d565b811461156057600080fd5b50565b61156c8161134f565b811461157757600080fd5b50565b6115838161138d565b811461158e57600080fd5b5056fea26469706673582212208be38fee65e36425b819b98228726d60cbaec7be2dfa8c9dd0de7ecd5598a95c64736f6c6343000804003348656c6c6f2c2049276d2057617665506f7274616c20736d61727420636f6e7472616374",
  "linkReferences": {},
  "deployedLinkReferences": {}
}